{
  "_format": "hh-sol-artifact-1",
  "contractName": "EmailService",
  "sourceName": "contracts/EmailService.sol",
  "abi": [
    {
      "inputs": [
        {
          "internalType": "bool",
          "name": "_enabled",
          "type": "bool"
        },
        {
          "internalType": "uint256",
          "name": "_fee",
          "type": "uint256"
        }
      ],
      "stateMutability": "nonpayable",
      "type": "constructor"
    },
    {
      "anonymous": false,
      "inputs": [
        {
          "indexed": false,
          "internalType": "string",
          "name": "emailAddress",
          "type": "string"
        },
        {
          "indexed": false,
          "internalType": "string",
          "name": "emailBody",
          "type": "string"
        }
      ],
      "name": "NewEmail",
      "type": "event"
    },
    {
      "anonymous": false,
      "inputs": [
        {
          "indexed": true,
          "internalType": "address",
          "name": "previousOwner",
          "type": "address"
        },
        {
          "indexed": true,
          "internalType": "address",
          "name": "newOwner",
          "type": "address"
        }
      ],
      "name": "OwnershipTransferred",
      "type": "event"
    },
    {
      "inputs": [],
      "name": "fee",
      "outputs": [
        {
          "internalType": "uint256",
          "name": "",
          "type": "uint256"
        }
      ],
      "stateMutability": "view",
      "type": "function"
    },
    {
      "inputs": [],
      "name": "owner",
      "outputs": [
        {
          "internalType": "address",
          "name": "",
          "type": "address"
        }
      ],
      "stateMutability": "view",
      "type": "function"
    },
    {
      "inputs": [],
      "name": "renounceOwnership",
      "outputs": [],
      "stateMutability": "nonpayable",
      "type": "function"
    },
    {
      "inputs": [
        {
          "internalType": "string",
          "name": "emailAddress",
          "type": "string"
        },
        {
          "internalType": "string",
          "name": "emailBody",
          "type": "string"
        }
      ],
      "name": "sendEmail",
      "outputs": [],
      "stateMutability": "payable",
      "type": "function"
    },
    {
      "inputs": [],
      "name": "setDisabled",
      "outputs": [],
      "stateMutability": "nonpayable",
      "type": "function"
    },
    {
      "inputs": [
        {
          "internalType": "uint256",
          "name": "_fee",
          "type": "uint256"
        }
      ],
      "name": "setEmailFee",
      "outputs": [],
      "stateMutability": "nonpayable",
      "type": "function"
    },
    {
      "inputs": [],
      "name": "setEnabled",
      "outputs": [],
      "stateMutability": "nonpayable",
      "type": "function"
    },
    {
      "inputs": [
        {
          "internalType": "address",
          "name": "newOwner",
          "type": "address"
        }
      ],
      "name": "transferOwnership",
      "outputs": [],
      "stateMutability": "nonpayable",
      "type": "function"
    },
    {
      "inputs": [],
      "name": "withdraw",
      "outputs": [],
      "stateMutability": "nonpayable",
      "type": "function"
    }
  ],
  "bytecode": "0x60806040526509184e72a0006001556000600260006101000a81548160ff0219169083151502179055503480156200003657600080fd5b5060405162000dd238038062000dd283398181016040528101906200005c91906200019f565b6200007c62000070620000a560201b60201c565b620000ad60201b60201c565b81600260006101000a81548160ff0219169083151502179055508060018190555050506200022a565b600033905090565b60008060009054906101000a900473ffffffffffffffffffffffffffffffffffffffff169050816000806101000a81548173ffffffffffffffffffffffffffffffffffffffff021916908373ffffffffffffffffffffffffffffffffffffffff1602179055508173ffffffffffffffffffffffffffffffffffffffff168173ffffffffffffffffffffffffffffffffffffffff167f8be0079c531659141344cd1fd0a4f28419497f9722a3daafe3b4186f6b6457e060405160405180910390a35050565b6000815190506200018281620001f6565b92915050565b600081519050620001998162000210565b92915050565b60008060408385031215620001b357600080fd5b6000620001c38582860162000171565b9250506020620001d68582860162000188565b9150509250929050565b60008115159050919050565b6000819050919050565b6200020181620001e0565b81146200020d57600080fd5b50565b6200021b81620001ec565b81146200022757600080fd5b50565b610b98806200023a6000396000f3fe6080604052600436106100865760003560e01c80638da5cb5b116100595780638da5cb5b146100ec5780638ec280cf14610117578063904667b91461012e578063ddca3f4314610157578063f2fde38b1461018257610086565b806326e41dd81461008b5780633ccfd60b146100a2578063715018a6146100b9578063738971ec146100d0575b600080fd5b34801561009757600080fd5b506100a06101ab565b005b3480156100ae57600080fd5b506100b7610244565b005b3480156100c557600080fd5b506100ce610316565b005b6100ea60048036038101906100e591906107ba565b61039e565b005b3480156100f857600080fd5b506101016103e9565b60405161010e919061094c565b60405180910390f35b34801561012357600080fd5b5061012c610412565b005b34801561013a57600080fd5b5061015560048036038101906101509190610826565b6104ab565b005b34801561016357600080fd5b5061016c610531565b60405161017991906109de565b60405180910390f35b34801561018e57600080fd5b506101a960048036038101906101a49190610791565b61053b565b005b6101b3610633565b73ffffffffffffffffffffffffffffffffffffffff166101d16103e9565b73ffffffffffffffffffffffffffffffffffffffff1614610227576040517f08c379a000000000000000000000000000000000000000000000000000000000815260040161021e906109be565b60405180910390fd5b6001600260006101000a81548160ff021916908315150217905550565b61024c610633565b73ffffffffffffffffffffffffffffffffffffffff1661026a6103e9565b73ffffffffffffffffffffffffffffffffffffffff16146102c0576040517f08c379a00000000000000000000000000000000000000000000000000000000081526004016102b7906109be565b60405180910390fd5b60006102ca6103e9565b90508073ffffffffffffffffffffffffffffffffffffffff166108fc479081150290604051600060405180830381858888f19350505050158015610312573d6000803e3d6000fd5b5050565b61031e610633565b73ffffffffffffffffffffffffffffffffffffffff1661033c6103e9565b73ffffffffffffffffffffffffffffffffffffffff1614610392576040517f08c379a0000000000000000000000000000000000000000000000000000000008152600401610389906109be565b60405180910390fd5b61039c600061063b565b565b60015434106103ac57600080fd5b7fa143101a4362cfd87ae414a5d241db3f695f1718ede051e5a2c817134a4b670d82826040516103dd929190610967565b60405180910390a15050565b60008060009054906101000a900473ffffffffffffffffffffffffffffffffffffffff16905090565b61041a610633565b73ffffffffffffffffffffffffffffffffffffffff166104386103e9565b73ffffffffffffffffffffffffffffffffffffffff161461048e576040517f08c379a0000000000000000000000000000000000000000000000000000000008152600401610485906109be565b60405180910390fd5b6000600260006101000a81548160ff021916908315150217905550565b6104b3610633565b73ffffffffffffffffffffffffffffffffffffffff166104d16103e9565b73ffffffffffffffffffffffffffffffffffffffff1614610527576040517f08c379a000000000000000000000000000000000000000000000000000000000815260040161051e906109be565b60405180910390fd5b8060018190555050565b6000600154905090565b610543610633565b73ffffffffffffffffffffffffffffffffffffffff166105616103e9565b73ffffffffffffffffffffffffffffffffffffffff16146105b7576040517f08c379a00000000000000000000000000000000000000000000000000000000081526004016105ae906109be565b60405180910390fd5b600073ffffffffffffffffffffffffffffffffffffffff168173ffffffffffffffffffffffffffffffffffffffff161415610627576040517f08c379a000000000000000000000000000000000000000000000000000000000815260040161061e9061099e565b60405180910390fd5b6106308161063b565b50565b600033905090565b60008060009054906101000a900473ffffffffffffffffffffffffffffffffffffffff169050816000806101000a81548173ffffffffffffffffffffffffffffffffffffffff021916908373ffffffffffffffffffffffffffffffffffffffff1602179055508173ffffffffffffffffffffffffffffffffffffffff168173ffffffffffffffffffffffffffffffffffffffff167f8be0079c531659141344cd1fd0a4f28419497f9722a3daafe3b4186f6b6457e060405160405180910390a35050565b600061071261070d84610a2a565b6109f9565b90508281526020810184848401111561072a57600080fd5b610735848285610ab2565b509392505050565b60008135905061074c81610b34565b92915050565b600082601f83011261076357600080fd5b81356107738482602086016106ff565b91505092915050565b60008135905061078b81610b4b565b92915050565b6000602082840312156107a357600080fd5b60006107b18482850161073d565b91505092915050565b600080604083850312156107cd57600080fd5b600083013567ffffffffffffffff8111156107e757600080fd5b6107f385828601610752565b925050602083013567ffffffffffffffff81111561081057600080fd5b61081c85828601610752565b9150509250929050565b60006020828403121561083857600080fd5b60006108468482850161077c565b91505092915050565b61085881610a76565b82525050565b600061086982610a5a565b6108738185610a65565b9350610883818560208601610ac1565b61088c81610b23565b840191505092915050565b60006108a4602683610a65565b91507f4f776e61626c653a206e6577206f776e657220697320746865207a65726f206160008301527f64647265737300000000000000000000000000000000000000000000000000006020830152604082019050919050565b600061090a602083610a65565b91507f4f776e61626c653a2063616c6c6572206973206e6f7420746865206f776e65726000830152602082019050919050565b61094681610aa8565b82525050565b6000602082019050610961600083018461084f565b92915050565b60006040820190508181036000830152610981818561085e565b90508181036020830152610995818461085e565b90509392505050565b600060208201905081810360008301526109b781610897565b9050919050565b600060208201905081810360008301526109d7816108fd565b9050919050565b60006020820190506109f3600083018461093d565b92915050565b6000604051905081810181811067ffffffffffffffff82111715610a2057610a1f610af4565b5b8060405250919050565b600067ffffffffffffffff821115610a4557610a44610af4565b5b601f19601f8301169050602081019050919050565b600081519050919050565b600082825260208201905092915050565b6000610a8182610a88565b9050919050565b600073ffffffffffffffffffffffffffffffffffffffff82169050919050565b6000819050919050565b82818337600083830152505050565b60005b83811015610adf578082015181840152602081019050610ac4565b83811115610aee576000848401525b50505050565b7f4e487b7100000000000000000000000000000000000000000000000000000000600052604160045260246000fd5b6000601f19601f8301169050919050565b610b3d81610a76565b8114610b4857600080fd5b50565b610b5481610aa8565b8114610b5f57600080fd5b5056fea26469706673582212209841e670a74eddb66de7ae7f2f515668d7644e299ae0cec58ed5eb15977035e464736f6c63430008000033",
  "linkReferences": {},
  "deployedLinkReferences": {}
}